S018000050524F4A4543545F454D4245444544442E737265636C
S11300000C942A000C9447000C9447000C9447006D
S11300100C9447000C9447000C9447000C94470040
S11300200C9447000C9447000C9447000C94470030
S11300300C9447000C943B010C9447000C9447002B
S11300400C9447000C9447000C9447000C94470010
S11300500C94470011241FBECFE5D8E0DEBFCDBF0E
S113006010E0A0E6B0E0E6ECFEE002C005900D92E0
S1130070A43BB107D9F720E0A4EBB0E001C01D9286
S1130080A53BB207E1F70E944A010C9461070C9466
S1130090000097B1892B87B93E9A379A329A08950E
S11300A0369A349BFECF83E08A95F1F7000024B1A1
S11300B085B190E0982F8827820F911D0895CF93E2
S11300C0DF93D62FC42F880F805690E00E94A000A3
S11300D08D2F90E00E94DA008C2F90E00E94DA00CD
S11300E00E94F300DF91CF9108950F931F93CF9354
S11300F0DF93D62F8A01C82FCC0F83EC99E00197A8
S1130100F1F700C0000080EA8C0F90E00E94A0008C
S11301108D2F90E00E94DA0081EA8C0F90E00E941B
S1130120BD000E94EC00F80180830E94F300DF917F
S1130130CF911F910F91089511B88AE280B9089563
S113014094EA96BF06B607FEFDCF91B1987F98302A
S113015071F483B984E886BF06B607FEFDCF81B18A
S1130160887F883131F0803231F083E0089580E077
S1130170089581E0089582E0089594EA96BF06B652
S113018007FEFDCF91B1987F903171F483B984E873
S113019086BF06B607FEFDCF81B1887F803431F07B
S11301A0883431F083E0089580E0089581E0089573
S11301B082E0089583B984E886BF06B607FEFDCFC2
S11301C081B1887F883221F0803321F082E0089564
S11301D080E0089581E0089584EC86BF06B607FEAA
S11301E0FDCF83B1089584E986BF06B604FCFDCF34
S11301F0089592B39F70282F207F922B92BBAA98C8
S1130200AB98AC9A0000AC9832E43A95F1F700C090
S113021022B32F7030E1839FC0011124822B82BB53
S1130220AC9A0000AC988DEE92E00197F1F700C013
S11302300000089592B39F70282F207F922B92BBC9
S1130240AB98AA9AAC9A0000AC9832E43A95F1F7CC
S113025000C022B32F7030E1839FC0011124822B90
S113026082BBAC9A0000AC988DEE92E00197F1F756
S113027000C0000008951F920F920FB60F92112430
S11302808F938CB18093B4008F910F900FBE0F9019
S11302901F901895CF93DF93CDB7DEB764970FB651
S11302A0F894DEBF0FBECDBF19820E949C00AE0140
S11302B04F5F5F4F62E170E081E090E00E94750063
S11302C089819DED980F993210F4809360000E940B
S11302D01F03789480E090E00E9449008CE0E8EAF3
S11302E0F0E0DE01129601900D928A95E1F78CE020
S11302F090E00E943E0381E690E00E9428038FEF85
S113030084BB81BBB898BF98D098D69AD79AD59A0F
S113031082E00E94F90088E20E94F9008CE00E94C9
S1130320F90086E00E94F90081E00E94F90080E86B
S11303300E94F900412C00E010E0512CC12CD12C7A
S11303401C8A1B8A5E018EE0A80EB11C0F2EF5EAF2
S11303502F2EF0E03F2EF02D4E0193E1890E911CDB
S11303608091B400813311F41091B4008091B400F1
S1130370823311F40091B400113391F7023381F701
S1130380C114D10421F489E790E00E942803EFEF1F
S1130390CE1ADE0AB79B43C10E9450003C01B09BB9
S11303A074C0B099FECF41102BC07E01F2E0EF0E75
S11303B0F11CF70181917F010E941A01AE14BF0460
S11303C0C1F7809160001F928F933F922F92BF924A
S11303D0AF920E94770475010F900F900F900F90C9
S11303E00F900F90F70181917F010E941A01E81488
S11303F0F904C1F782E00E94F90044244394BAC08E
S1130400809160008B5F809360004091600050E0B9
S113041062E170E081E090E00E945F008091600002
S11304208C3408F402C1FBE4F09360004091600056
S113043050E062E170E081E090E00E945F00F5C06E
S1130440F70181917F010E941A01AE14BF04C1F724
S1130450809160001F928F933F922F92BF92AF9230
S11304600E94770475010F900F900F900F900F90DA
S11304700F90F70181917F010E941A018E149F044D
S1130480C1F782E00E94F90075C0B19B73C0B199B5
S1130490FECF41102BC07E01F2E0EF0EF11CF701FC
S11304A081917F010E941A01AE14BF04C1F78091AB
S11304B060001F928F933F922F92BF92AF920E943F
S11304C0770475010F900F900F900F900F900F907D
S11304D0F70181917F010E941A01E814F904C1F720
S11304E082E00E94F9004424439444C08091600057
S11304F08550809360004091600050E062E170E0BC
S113050081E090E00E945F0080916000833208F0F7
S113051091C0F3E2F09360004091600050E062E12A
S113052070E081E090E00E945F0084C0F701819157
S11305307F010E941A01AE14BF04C1F780916000CC
S11305401F928F933F922F92BF92AF920E94770493
S113055075010F900F900F900F900F900F90F7016F
S113056081917F010E941A018E149F04C1F782E0D9
S11305700E94F900B301770C880B990B0E947E034B
S113058022EB39E24AEF5EE30E94E2030E94460353
S11305908091600090E005976817790731F4DF9A3D
S11305A0DE9881E090E09C8B8B8B8091600090E0E2
S11305B005966817790729F4DE9ADF98DD9A1B8A75
S11305C01C8A08B600FEFDCF539494E1591218C05A
S11305D08091600090E0059768177907E4F08091B6
S11305E0600090E0059668177907ACF4EB89FC8904
S11305F0319789F48BB3F0E28F278BBB512C0BC05E
S113060084E6581208C0B09906C0B19904C081E0CC
S11306100E94F900512C88B7816088BFA1CEB79998
S11306209FCE81E00E94F9009BCE7E0192E0E90E0C
S1130630F11C06CF7E01E2E0EE0EF11C77CF12BE74
S113064083B7846083BF08955D9BFECF8CB9089502
S11306500F931F93CF93FC018081882359F08F015E
S1130660C0E00E942403CF5FF801EC0FF11D8081EC
S11306708111F7CFCF911F910F91089590BD89B942
S113068088E18AB9579A86E880BD08950E944D038F
S11306906894B1110C94DC0308950E94C10388F09E
S11306A09F5798F0B92F9927B751B0F0E1F0660F32
S11306B0771F881F991F1AF0BA95C9F714C0B13073
S11306C091F00E94DB03B1E008950C94DB03672FE3
S11306D0782F8827B85F39F0B93FCCF386957795A2
S11306E06795B395D9F73EF490958095709561958B
S11306F07F4F8F4F9F4F0895E89409C097FB3EF4B6
S113070090958095709561957F4F8F4F9F4F99235A
S1130710A9F0F92F96E9BB279395F69587957795D8
S11307206795B795F111F8CFFAF4BB0F11F460FF98
S11307301BC06F5F7F4F8F4F9F4F16C0882311F0F0
S113074096E911C0772321F09EE8872F762F05C004
S1130750662371F096E8862F70E060E02AF09A959F
S1130760660F771F881FDAF7880F9695879597F994
S1130770089557FD9058440F551F59F05F3F71F08D
S11307804795880F97FB991F61F09F3F79F08795F4
S11307900895121613061406551FF2CF4695F1DF7D
S11307A008C0161617061806991FF1CF869571050D
S11307B0610508940895E894BB2766277727CB0141
S11307C097F908950E94F5030C9466040E94580456
S11307D038F00E945F0420F0952311F00C944F042C
S11307E00C94550411240C94DC030E94B90370F397
S11307F0959FC1F3950F50E0551F629FF001729FC2
S1130800BB27F00DB11D639FAA27F00DB11DAA1FD0
S1130810649F6627B00DA11D661F829F2227B00D1D
S1130820A11D621F739FB00DA11D621F839FA00DA8
S1130830611D221F749F3327A00D611D231F849FF8
S1130840600D211D822F762F6A2F11249F5750404F
S11308509AF0F1F088234AF0EE0FFF1FBB1F661FCA
S1130860771F881F91505040A9F79E3F510580F093
S11308700C944F040C94DC035F3FE4F3983ED4F3F0
S1130880869577956795B795F795E7959F5FC1F737
S1130890FE2B880F911D9695879597F9089597F9E2
S11308A09F6780E870E060E008959FEF80EC089512
S11308B000240A941616170618060906089500243B
S11308C00A9412161306140605060895092E0394B5
S11308D0000C11F4882352F0BB0F40F4BF2B11F429
S11308E060FF04C06F5F7F4F8F4F9F4F0895AEE04E
S11308F0B0E0EDE7F4E00C9438070D891E8986E03A
S11309008C831A8309838FEF9FE79E838D83AE01C7
S1130910475E5F4F6F89788DCE0101960E949904DE
S1130920EF81F885E00FF11F10822E96E4E00C941D
S11309305407ABE0B0E0EFE9F4E00C942A076C0153
S11309407B018A01FC0117821682838181FFCCC15D
S1130950CE0101963C01F6019381F70193FD859147
S113096093FF81917F01882309F4BAC1853239F458
S113097093FD859193FF81917F01853229F4B6011E
S113098090E00E949006E7CF912C212C312CFFE1BE
S1130990F315D8F08B3279F038F4803279F0833261
S11309A0A1F4232D20611DC08D3261F0803369F4E0
S11309B0232D216016C0832D8260382EE32DE46040
S11309C03E2E2AC0F32DF8601DC037FC2DC020ED4B
S11309D0280F2A3040F08E32B9F436FC81C1232D21
S11309E02064322E19C036FE06C08AE0989E200D7F
S11309F01124922E11C0EAE02E9E200D1124222EE5
S1130A00F32DF0623F2E08C08C3621F4832D8068CC
S1130A10382E02C0883641F4F70193FD859193FF87
S1130A2081917F018111B3CF982F9F7D955493308D
S1130A3028F40C5F1F4F9FE399830DC0833631F078
S1130A40833771F0833509F059C021C0F8018081E2
S1130A5089830E5F1F4F88248394912C530113C004
S1130A602801F2E04F0E511CF801A080B18036FE3F
S1130A7003C0692D70E002C06FEF7FEFC5010E94D3
S1130A8085064C018201F32DFF773F2E16C0280105
S1130A9022E0420E511CF801A080B18036FE03C052
S1130AA0692D70E002C06FEF7FEFC5010E947A06E6
S1130AB04C01F32DF0683F2E820133FC1BC0822DC4
S1130AC090E088169906B0F4B60180E290E00E94A6
S1130AD090062A94F4CFF50137FC859137FE819175
S1130AE05F01B60190E00E94900621102A9421E053
S1130AF0821A91088114910471F7E8C0843611F0C8
S1130B00893641F5F80137FE07C060817181828121
S1130B1093810C5F1F4F08C060817181072E000C08
S1130B20880B990B0E5F1F4FF32DFF763F2E97FF17
S1130B3009C090958095709561957F4F8F4F9F4F19
S1130B40F0683F2E2AE030E0A3010E94CC06882EF4
S1130B50861845C0853731F4232D2F7EB22E2AE026
S1130B6030E025C0932D997FB92E8F36C1F018F44B
S1130B70883579F0B5C0803719F0883721F0B0C0D6
S1130B80E92FE061BE2EB4FE0DC0FB2DF460BF2E34
S1130B9009C034FE0AC0292F2660B22E06C028E000
S1130BA030E005C020E130E002C020E132E0F8018D
S1130BB0B7FE07C060817181828193810C5F1F4FF2
S1130BC006C06081718180E090E00E5F1F4FA30139
S1130BD00E94CC06882E8618FB2DFF773F2E36FE0A
S1130BE00DC0232D2E7FA22E891458F434FE0BC081
S1130BF032FC09C0832D8E7EA82E05C0B82CA32CF0
S1130C0003C0B82C01C0B92CA4FE0FC0FE01E80D2E
S1130C10F11D8081803321F49A2D997EA92E09C07B
S1130C20A2FE06C0B394B39404C08A2D867809F05A
S1130C30B394A3FC11C0A0FE06C0B21488F4280C1F
S1130C40922C9B180EC0B21460F4B60180E290E0BE
S1130C500E949006B394F7CFB21418F42B1802C074
S1130C60982C212CA4FE10C0B60180E390E00E94D1
S1130C709006A2FE17C0A1FC03C088E790E002C062
S1130C8088E590E0B6010CC08A2D867859F0A1FE63
S1130C9002C08BE201C080E2A7FC8DE2B60190E0C5
S1130CA00E949006891438F4B60180E390E00E9413
S1130CB090069A94F7CF8A94F301E80DF11D808190
S1130CC0B60190E00E9490068110F5CF222009F42D
S1130CD042CEB60180E290E00E9490062A94F6CFBC
S1130CE0F6018681978102C08FEF9FEF2B96E2E198
S1130CF00C944607FC010590615070400110D8F730
S1130D00809590958E0F9F1F0895FC01615070404F
S1130D1001900110D8F7809590958E0F9F1F08952C
S1130D200F931F93CF93DF93FB01238121FD03C016
S1130D308FEF9FEF2CC022FF16C04681578124817C
S1130D4035814217530744F4A081B1819D012F5F7F
S1130D503F4F318320838C93268137812F5F3F4F10
S1130D603783268314C08B01EC01FB010084F185D9
S1130D70E02D0995892BE1F6D80116968D919C9169
S1130D801797019617969C938E931697CE01DF9131
S1130D90CF911F910F910895FA01AA27283051F19C
S1130DA0203181F1E8946F936E7F6E5F7F4F8F4F98
S1130DB09F4FAF4FB1E03ED0B4E03CD0670F781FF7
S1130DC0891F9A1FA11D680F791F8A1F911DA11DDC
S1130DD06A0F711D811D911DA11D20D009F4689415
S1130DE03F912AE0269F11243019305D3193DEF6BD
S1130DF0CF010895462F4770405D4193B3E00FD073
S1130E00C9F7F6CF462F4F70405D4A3318F0495D5D
S1130E1031FD4052419302D0A9F7EACFB4E0A69540
S1130E209795879577956795BA95C9F70097610562
S1130E30710508959B01AC010A2E069457954795B8
S1130E4037952795BA95C9F7620F731F841F951FAD
S1130E50A01D08952F923F924F925F926F927F92BE
S1130E608F929F92AF92BF92CF92DF92EF92FF92B6
S1130E700F931F93CF93DF93CDB7DEB7CA1BDB0B62
S1130E800FB6F894DEBF0FBECDBF09942A88398807
S1130E9048885F846E847D848C849B84AA84B9840E
S1130EA0C884DF80EE80FD800C811B81AA81B9811A
S1130EB0CE0FD11D0FB6F894DEBF0FBECDBFED012E
S1090EC00895F894FFCF31
S1130EC63C656E74657220796F75722070617373F8
S1130ED6776F72642020202000202052696768748E
S1130EE62070617373776F72642C706C65617365BF
S1130EF620676F20746F204F4E2F4F464620627531
S1130F0674746F6E002564007365742074656D7067
S1070F1620697300D7
S9030000FC
